Unspent TX
[
    {
        "txid" : "c0f303f942ec355b5302e122f5daac9a52fd5411a7e916b0377596cf22727738",
        "vout" : 1,
        "scriptPubKey" : "76a9142b464fb989bb389f3dceb23e8e5d50bbce02d11488ac",
        "amount" : 7.50000000,
        "confirmations" : 1754
    }
]

Address D95upq8MqqRDGhQgCv1L92bi2ccqR3NP77
PrivKeyWif QUr6GpJZ23e83cmBbh1CFcBLADk5Hs3eXvEKagZsF4wFb2xWBpC5

These 2 transaction were created in VERGEd

First Attempt, was sent using VERGEd
VERGEd createrawtransaction '[{"txid":"c0f303f942ec355b5302e122f5daac9a52fd5411a7e916b0377596cf22727738","vout":1,
"address":"D95upq8MqqRDGhQgCv1L92bi2ccqR3NP77","scriptPubKey":"76a9142b464fb989bb389f3dceb23e8e5d50bbce02d11488ac","amount":7.50000000,"confirmations":1754}]' '{"DQD44a6m4u8rvngXMczDSf7C6gtsJBHsvt":0.2}'
=====
010000000a09345b0138777222cf967537b016e9a71154fd529aacdaf522e102535b35ec42f903f3c00100000000ffffffff01400d0300000000001976a914d129fc5996a0eee7988309d13c12386e93a9933488ac00000000
==
VERGEd signrawtransaction 010000000a09345b0138777222cf967537b016e9a71154fd529aacdaf522e102535b35ec42f903f3c00100000000ffffffff01400d0300000000001976a914d129fc5996a0eee7988309d13c12386e93a9933488ac00000000
=====
010000000a09345b0138777222cf967537b016e9a71154fd529aacdaf522e102535b35ec42f903f3c0010000006b4830450220268323e84af1ae2896c217bfb47f6d5063e0455dfb637f2cc2388ea33e2743e2022100822381cd43b626378d1bd81d67e1f2580a133f315fcf21bfacd307a7c949a832012102ec670e911f75088df3cc5b0290ded2c3b4bbc4d2188860f97053e5ee9accbd1affffffff01400d0300000000001976a914d129fc5996a0eee7988309d13c12386e93a9933488ac00000000


Second transaction has not been sent yet
VERGEd createrawtransaction '[{"txid":"4ae59f827e62a7224a305334420d5a574f02c975a5098092e520001d7135ea73","vout":0,"scriptPubKey":"76a914d129fc5996a0eee7988309d13c12386e93a9933488ac","amount":0.20000000,"confirmations":20}]' '{"D95upq8MqqRDGhQgCv1L92bi2ccqR3NP77":0.1}'
======
010000002ec8355b0173ea35711d0020e5928009a575c9024f575a0d423453304a22a7627e829fe54a0000000000ffffffff01a0860100000000001976a9142b464fb989bb389f3dceb23e8e5d50bbce02d11488ac00000000
====
VERGEd signrawtransaction 010000002ec8355b0173ea35711d0020e5928009a575c9024f575a0d423453304a22a7627e829fe54a0000000000ffffffff01a0860100000000001976a9142b464fb989bb389f3dceb23e8e5d50bbce02d11488ac00000000
=====
Result hex from VERGEd
010000002ec8355b0173ea35711d0020e5928009a575c9024f575a0d423453304a22a7627e829fe54a000000006b483045022056a80e3d68263b84c5b0c86ff9edeba2fef8f8b81329040ea3db2673af34d484022100d0e5e4f7907058680d604156b7506f84ed07a6c504ed99bc4df5482de5749d340121020ecd1e87f463c3018011ed4d8d5dd91517a2f8fe8b7a20c4b4fa0894b08b3d15ffffffff01a0860100000000001976a9142b464fb989bb389f3dceb23e8e5d50bbce02d11488ac00000000

This is the same tx created with our JS code
010000002f5917000173ea35711d0020e5928009a575c9024f575a0d423453304a22a7627e829fe54a000000006a47304502210087b579dceb6d888f5c17b161b84b039a69757007a3d3fb79c0957a5c559c578b0220689fdd3cdcb03dbd5bb22b05030ccade344830cde7608d26dcbb0e557002a4ec21022485fbba817a5bbeb59c77302bada2b59042f547092b1b4a53da08480bfdb741ffffffff01a0860100000000001976a914d129fc5996a0eee7988309d13c12386e93a9933488ac00000000

01000000b0c7355b0173ea35711d0020e5928009a575c9024f575a0d423453304a22a7627e829fe54a000000006a47304402207c73a1559e205823d488d69b9316560b9ae07b076397d7e70c8f8242006fb21b02200e0e845c14dd09ea8eff44c8c4a8e50c564e7700c3a62721653d39be2d20759f0121020ecd1e87f463c3018011ed4d8d5dd91517a2f8fe8b7a20c4b4fa0894b08b3d15ffffffff01a0860100000000001976a9142b464fb989bb389f3dceb23e8e5d50bbce02d11488ac00000000